{
  "_format": "hh-sol-artifact-1",
  "contractName": "VoucherRedemption",
  "sourceName": "contracts/VoucherRedemption.sol",
  "abi": [
    {
      "inputs": [],
      "name": "InsufficientFunds",
      "type": "error"
    },
    {
      "inputs": [],
      "name": "VoucherAlreadyExists",
      "type": "error"
    },
    {
      "inputs": [],
      "name": "VoucherAlreadyRedeemed",
      "type": "error"
    },
    {
      "inputs": [],
      "name": "VoucherNotFound",
      "type": "error"
    },
    {
      "anonymous": false,
      "inputs": [
        {
          "indexed": false,
          "internalType": "bytes32",
          "name": "voucherId",
          "type": "bytes32"
        },
        {
          "indexed": false,
          "internalType": "uint256",
          "name": "amount",
          "type": "uint256"
        },
        {
          "indexed": false,
          "internalType": "address",
          "name": "creator",
          "type": "address"
        }
      ],
      "name": "VoucherCreated",
      "type": "event"
    },
    {
      "anonymous": false,
      "inputs": [
        {
          "indexed": false,
          "internalType": "bytes32",
          "name": "voucherId",
          "type": "bytes32"
        },
        {
          "indexed": false,
          "internalType": "uint256",
          "name": "amount",
          "type": "uint256"
        },
        {
          "indexed": false,
          "internalType": "address",
          "name": "redeemer",
          "type": "address"
        }
      ],
      "name": "VoucherRedeemed",
      "type": "event"
    },
    {
      "inputs": [
        {
          "internalType": "bytes32",
          "name": "voucherId",
          "type": "bytes32"
        }
      ],
      "name": "createVoucher",
      "outputs": [],
      "stateMutability": "payable",
      "type": "function"
    },
    {
      "inputs": [
        {
          "internalType": "bytes32",
          "name": "voucherId",
          "type": "bytes32"
        }
      ],
      "name": "getVoucherAmount",
      "outputs": [
        {
          "internalType": "uint256",
          "name": "",
          "type": "uint256"
        }
      ],
      "stateMutability": "view",
      "type": "function"
    },
    {
      "inputs": [
        {
          "internalType": "bytes32",
          "name": "voucherId",
          "type": "bytes32"
        }
      ],
      "name": "getVoucherStatus",
      "outputs": [
        {
          "internalType": "bool",
          "name": "exists",
          "type": "bool"
        },
        {
          "internalType": "bool",
          "name": "redeemed",
          "type": "bool"
        },
        {
          "internalType": "address",
          "name": "creator",
          "type": "address"
        },
        {
          "internalType": "uint256",
          "name": "amount",
          "type": "uint256"
        }
      ],
      "stateMutability": "view",
      "type": "function"
    },
    {
      "inputs": [
        {
          "internalType": "bytes32",
          "name": "voucherId",
          "type": "bytes32"
        }
      ],
      "name": "redeemVoucher",
      "outputs": [],
      "stateMutability": "nonpayable",
      "type": "function"
    },
    {
      "inputs": [
        {
          "internalType": "bytes32",
          "name": "",
          "type": "bytes32"
        }
      ],
      "name": "vouchers",
      "outputs": [
        {
          "internalType": "uint256",
          "name": "amount",
          "type": "uint256"
        },
        {
          "internalType": "address",
          "name": "creator",
          "type": "address"
        },
        {
          "internalType": "bool",
          "name": "redeemed",
          "type": "bool"
        }
      ],
      "stateMutability": "view",
      "type": "function"
    }
  ],
  "bytecode": "0x608060405234801561001057600080fd5b506104ce806100206000396000f3fe60806040526004361061004a5760003560e01c80634c2480c51461004f578063a6c530a714610082578063be19d97f14610118578063c2e9f5ab1461012d578063e4c96ac41461014d575b600080fd5b34801561005b57600080fd5b5061006f61006a36600461047f565b6101bb565b6040519081526020015b60405180910390f35b34801561008e57600080fd5b506100e761009d36600461047f565b60009081526020818152604091829020825160608101845281548082526001909201546001600160a01b038116938201849052600160a01b900460ff161515930183905281151593565b6040516100799493929190931515845291151560208401526001600160a01b03166040830152606082015260800190565b61012b61012636600461047f565b610224565b005b34801561013957600080fd5b5061012b61014836600461047f565b610330565b34801561015957600080fd5b5061019661016836600461047f565b600060208190529081526040902080546001909101546001600160a01b03811690600160a01b900460ff1683565b604080519384526001600160a01b039092166020840152151590820152606001610079565b6000818152602081815260408083208151606081018352815481526001909101546001600160a01b038116938201849052600160a01b900460ff161515918101919091529061021d576040516372dea21d60e11b815260040160405180910390fd5b5192915050565b6000818152602081905260409020600101546001600160a01b03161561025d5760405163e8fc5d1b60e01b815260040160405180910390fd5b3460000361027e5760405163356680b760e01b815260040160405180910390fd5b60408051606081018252348082523360208084018281526000858701818152888252928190528690209451855551600194909401805491511515600160a01b026001600160a81b03199092166001600160a01b0395909516949094171790925591517ffc0c8979cccc3f35bd128fb4d98ec4415bd93ac4b0d1759c8a86218ae33af384926103259285835260208301919091526001600160a01b0316604082015260600190565b60405180910390a150565b600081815260208190526040902060018101546001600160a01b0316610369576040516372dea21d60e11b815260040160405180910390fd5b6001810154600160a01b900460ff161561039657604051633c2c4dd160e01b815260040160405180910390fd5b60018101805460ff60a01b1916600160a01b179055805460405160009133918381818185875af1925050503d80600081146103ed576040519150601f19603f3d011682016040523d82523d6000602084013e6103f2565b606091505b50509050806104395760405162461bcd60e51b815260206004820152600f60248201526e151c985b9cd9995c8819985a5b1959608a1b604482015260640160405180910390fd5b81546040805185815260208101929092523382820152517f1f83b353707272f7f17461778a496a8b2a93e5b03355b32f0f5f6a152567a3ae9181900360600190a1505050565b60006020828403121561049157600080fd5b503591905056fea26469706673582212208aaa805042bef575ec320d4b655dd844ee530b78554220118f5d20c4a4b6070864736f6c63430008140033",
  "linkReferences": {},
  "deployedLinkReferences": {}
}